:020000040000FA
:101C40008E308A00292E0E308A008E1A1B2E8E1E90
:101C5000272EDA27DA272100FB30990010308C007C
:101C600022008C120C152000303098002300903098
:101C70009D000E1226309E00210010308C0028306E
:101C80008E0023009F1523001D121908190820003B
:101C9000970196011110B0261814B02618101118CB
:101CA000482E160823009B002000170823009C00E4
:101CB00023001D162030840000308500C5270F3A10
:101CC000031D432E0F30AF27C5270F3A0319622E8D
:101CD0000008043A0319752E0008053A031D712EF9
:101CE000C527840A841F642E432E21000403A30009
:101CF000A3032030840000308500A001A10100086A
:101D0000B926840A04082302031D7F2E200800023E
:101D1000031D432E840A21080002031D432EA00147
:101D2000A10120002208840021082300910004085A
:101D30009200263084000030850020000A30200206
:101D40000318432E20088207D62EDE2EFD2E162FD6
:101D50003D2F722F832F932F00000E308A001B2EF1
:101D60006400111808008E1AB12E8E1EB52E0800C0
:101D700021002106A2002008A1002208A000200EB8
:101D80000F39A006200EF039A106A00E0310200D79
:101D90000318013EA106E039A106A00EA006080026
:101DA000E00101050102200E00003A010630A50005
:101DB000A6012300D03091008E309200F2269F279A
:101DC000B92604089F27B9262300910A0319920A0D
:101DD00020000130A502031CA60326082504031DCC
:101DE000DE2E962F23009517151400000000230007
:101DF00014088400130820000800F226B8260408FE
:101E0000B9262300910A0319920A11081F39031DEC
:101E1000FD2E9B2720000130A502031CA6032608E7
:101E20002504031DFD2E972F202E202E23000F307A
:101E30009205E03091050E30120220300319110294
:101E4000031C2E2F10301202003003191102031848
:101E50002E2F23009501322F202E202E2300943088
:101E60009500D127230020309102031C920320000B
:101E7000A50B162F932F202E202E23000F30920516
:101E8000E03091050E301202203003191102031CBC
:101E9000552F103012020030031911020318552F6C
:101EA00023009501582F202E202E230084309500EA
:101EB00023000008840A9300951611081F3A1F3961
:101EC000031995120008840A9400D0272300910A70
:101ED0000319920A1F301105031D582F2000A50B6E
:101EE0003D2F932F2300950115141518752F2300EE
:101EF00013082300910A0319920A9F27B92620008C
:101F0000A50B722F962F840A00082300930023004C
:101F100004309500D12795188B2F2300910A2000BB
:101F2000A50B832F932F20089F27B9269B272000DE
:101F30000430AF27582E210020089F2721082100B8
:101F4000A3000F3A0319AC2F2308043A0319AC2F4E
:101F50002308053A031DAE2F0530AF2723082000C4
:101F60006400111EB12F23001D1222008C160C11CB
:101F700023009A0064009E1CFD3322008C120C1575
:101F800023001D1621000000080020006400911E9F
:101F9000C72F23001908200080000800202E202EC3
:101FA0002300640055309600AA3096009514000076
:101FB00000000800FF30E000FF30E100E00BFE33DE
:101FC000E10BFC33080022008C12DA27DA27DA272B
:101FD000DA27DA27DA27DA27DA27DA27DA27DA27F9
:101FE000DA2722008C16DA27DA27DA27DA27DA2727
:101FF000DA27DA27DA27DA27DA27DA27DA27E333C4
:020000040001F9
:02000E00A43F0D
:02001000FF1FD0
:00000001FF
