:100680008331422B8331672B88311F2888313F28E3
:1006900088316F2888318A288831DA288831A6285D
:1006A0008831BE288831DA288831C3288831DC288F
:0806B0008831422888315C28E2
:1006BC00080020000C0E890C01392100B000B1019A
:1006CC0008005A308400003085001630883108202C
:1006DC008331A0308400003085004C3088310820F4
:1006EC0083312030840001308500083088310820A7
:1006FC0083312000812BE123833103302000A100C2
:10070C00E130A0000A2483312000D8015808CB3EE8
:10071C00860087015808CE248331810020001630D2
:10072C00D80A5802031C8C2B21000130D401D301B0
:10073C00D200D1005530D700AA30D8008B170B1738
:10074C000C110E1120000C110E1108302100C800E4
:10075C00C701CA00C9018E115930462483312100CA
:10076C00CD00CE014B0FC62B4C0A031DC62B20000F
:10077C0059082100CB00CC01200059088925833170
:10078C00E224833120006218E219DF2B22008E153F
:10079C0006302000D7003030D600D60BD32BD70B29
:1007AC00D32B0000BF25833123009E1CDA2B2200A3
:1007BC008E116400C62B8B1A0B1DE52B412F0B1FC2
:1007CC00EE2B2100111EEE2B2000111EEE2B2B2FD9
:1007DC000B1FF72B2100911EF72B2000911EF72BDE
:1007EC00152F0B1F012C2100911D012C2000911D98
:1007FC00012C88310E280B1F08002100921D0800C7
:10080C002000921D0800AF2D302483312924833120
:10081C004324833115248331B02583315E2FE93095
:10082C002000DB00DA004030DC145C10DE01240018
:10083C009400283095009701E0309200200091112F
:10084C0021009115080070302100990098011A1BA5
:10085C0008002D2C22008C018E013F3021008C00D1
:10086C008E0023008E018C0124008C008E00210050
:10087C00951322009E019D0108001030970008007E
:10088C002000B1003130A0248331003A03195B2CD5
:10089C00A6270A302100AC000930AD002000310839
:1008AC00860040308701810002344F30A024833110
:1008BC00003A03196D2C30302100AC000C30AD0027
:1008CC002000310886004130870181000134473017
:1008DC00A0248331003A0319812C8B31F023A630EC
:1008EC002100AC000B30AD002000310886004230F6
:1008FC00870181000334A730A0248331003A031907
:10090C00942C29302100AC000E30AD00842720003F
:10091C003108860043308701810005343108860098
:10092C004430870181005F302100AC000330AD0002
:10093C007C270634A200F701F70A2236F80024308F
:10094C00F901FA002330B32424308D31F72583319B
:10095C0020002408031901340034FB005C18C82C57
:10096C007B08F0007708F1007908F3007808F200B2
:10097C00E1308D31A225E130F0007A08F100013030
:10098C008D31C12D7A08860087018101810A08000A
:10099C00F000D12C2000640023009518D02C700896
:1009AC00910092013F30950515140310151803148E
:1009BC000030093D130808002000E2018425833132
:1009CC00FF302100C600C5002E258331FB00083006
:1009DC002F02003003192E02031CE42C20000C1AE9
:1009EC00FA2C7B080319062D7B08F900FA0121006B
:1009FC004C087A06031D042D4B087906031D0800CC
:100A0C0008302100C8000030C70120000C1162140E
:100A1C002E258331C000222D342583317408C20069
:100A2C007308C100342583317408C4007308C300F3
:100A3C00F32F2000621508004008033A0319122D09
:100A4C00073A0319122D023A0319122D1F2D080013
:100A5C0041258331F200FB26720808002E258331D4
:100A6C00F500F601F600F5012E25F8007504F300EB
:100A7C007608F40008002100AE01AF0120006308E5
:100A8C00031D702D2100470848040319572D013010
:100A9C00C7020030C83B47084804031D572D2000EF
:100AAC000C15210049084A040319662D0130C902AE
:100ABC000030CA3B49084A04031D662D20000E1560
:100ACC0021002E0F6C2D2F0A0319442DAE0A031989
:100ADC00AF0A442D6508203E8600013087000108CE
:100AEC00F000E50A083065020318E50121009112B7
:100AFC002000E30321009116700808002000E40197
:100B0C00E501E3010800F2007208031908007208FD
:100B1C00F0000030F013962583310130F001962D52
:100B2C00F10023009518972D71089100920170081F
:100B3C0093003F30950503108B1B03148B13151575
:100B4C0055309600AA3096009514151103188B1782
:100B5C00080008001508C03917389500B03020007F
:100B6C009500ED000B118B165E30F0000330F10098
:100B7C00762F0F278331FF302100C600C5002000DF
:100B8C000E1108302100CA00C90106304006031DB1
:100B9C00D42D3A2683312000621D08002000621DEE
:100BAC00E218DC2D621ADC2DE21DE62D6219E12D16
:100BBC000430D400E32DD401D40AD50154087B2E83
:100BCC00003021004202C83003194102031CF82DE9
:100BDC0000304202D230031941020318F82D41357E
:100BEC003B3E8C2E2D088A002C080A0001308531E2
:100BFC00210042022C30031941020130031C0F2E3C
:100C0C00420234300319410203180E2E2C30262ECA
:100C1C0001304202903003194102031C1E2E013098
:100C2C00420294300319410203181E2E9030262ED6
:100C3C00F4304106031D292E4203031D292EF430E6
:100C4C00C1020130332E2030410603300319420615
:100C5C00031D352E2030C1020330C23B372E02302B
:100C6C007B2E4135B03E8C2E4D2E20000C1A4A2E78
:100C7C0021004408CC004308CB007F30CB05CC01CD
:100C8C004B0889258331632E62150800632E4208B8
:100C9C00003A0319522E632E4108C83A03193B2E11
:100CAC00063A03194C2E013A0319632E1F3A031905
:100CBC00632E013A0319632E632E21004B08B426D0
:100CCC0083314008B42683314208F4004108F30014
:100CDC00F62683314408F4004308F300F6268331EA
:100CEC004508B92683314608B92EF30021004B087C
:100CFC00B426833140088038B42683317308B42677
:100D0C0083314508B92683314608B92EF7004B08C4
:100D1C00B42683314008B42683314335B42683315D
:100D2C00F8017808F500F60144087602031DA02EA0
:100D3C00430875020318AF2E78357707F500860047
:100D4C008701403FF300413FF400F6268331F80A57
:100D5C00972E4508B92683314608B92EF200B926DC
:100D6C0083317208FB2EF00020006608031DDE2E76
:100D7C002100470848040319CD2E0130C70200306A
:100D8C00C83B47084804031DCD2E20000C1521003C
:100D9C0049084A040319BA2E0130C9020030CA3B73
:100DAC0049084A04031DBA2E20000E152100BA2E44
:100DBC002100111AE52E700823009A00F32E11124F
:100DCC0020006708A03E8600870170088100E70AB2
:100DDC00083067020318E701E6032100111608002A
:100DEC007408B42683317308B42EF000C50608309D
:100DFC00F100451C082FC636C50C0130C506A030C5
:100E0C00C6060A2FC636C50CF10371080319080073
:100E1C00FF2E2000E701E8010830E600080023005F
:100E2C009D1C1A2F1D121D1620006408203E8600E2
:100E3C00013087002300190881002000E40A0830E3
:100E4C0064020318E401E30A080008306602031880
:100E5C003E2F6808A03E86008701010823009A00F7
:100E6C002000E80A083068020318E801E60A0800C6
:100E7C002100111208000B116D0895002100A80A21
:100E8C000319A90A003029020A3003192802031C8D
:100E9C00080054272100A801A90108002A082B04E6
:100EAC00031908002B088A002A080A008731080059
:100EBC0091121112083023009F00B0309D00243095
:100ECC009E00A0309B0001309C002000E701E8014F
:100EDC000830E600E401E501E30121009116080069
:100EEC0071082100AB007008AA0008000E10200049
:100EFC000E1021008C1624008C1208000A30F90008
:100F0C003130912783310830F9002D30912783310E
:100F1C003830F901912F2000A200A3007908A40019
:100F2C002330F0000230F1005330F2002530F30191
:100F3C008E31102683312530F301F30A8D31092DC2
:100F4C000830A7002730A801A80AFC000230FD00D9
:100F5C001830B02FA4000230A501A60026030319F7
:100F6C00CE2F7D08F7002408F8002630F901FA008E
:100F7C007C08D8278331023026060319C12F260896
:100F8C000319CE2F053025060319CE2FA50AB42F31
:100F9C000630A3003030A200A20BD22FA30BD22F0D
:100FAC0000000800FB005C18ED2F7B08F0007708B0
:100FBC00F1007908F3007808F200E5308E31102644
:100FCC00E530F0007A08F10001308D31C12D7A083E
:100FDC00860087018101810A080041258331F300D5
:100FEC00F401F400F3014125F6007304F1007408D8
:040FFC00F2000800F7
:10101000640080010131890B0928003491112400FA
:10102000951FDF2895132000E9016B08023E86001A
:101030008701010886008101810AEB010800DC18A4
:1010400008005B08EB005B08860087010108EA00E6
:101050005B088600413FEC000330DB075B08EC3A9D
:10106000031D3428E930DB005C105B085A060319C5
:10107000DC142400161402302000E90008002400CB
:1010800096143B282400161F492820000430DE0A4D
:10109000EB2820006F08F2006E08F100F236F10C28
:1010A00071082400910020006E1C59280B30E900C3
:1010B00008000330E90008002400161F6328200000
:1010C0000430DE0AEB289614063020006F05F1008C
:1010D000F038EE00EF016E14DF01DF0A3B285F03FA
:1010E000031981286C0886008701403FEE00413FCC
:1010F000EF006C088600433FE1006C088600423F29
:10110000E0006E082400910020006E1C5928053074
:10111000E90008002400161F93282000DE0A24009E
:1011200016130530EB282000E003600F9D280430E3
:10113000EC07EA0B3F280030EB28610886008701A6
:101140000108240091002000E10A08000330F200A9
:101150009730F100F10BAA28F20BAA2800322400E4
:10116000161FB92820000430DE0AEB2024001613D5
:101170000800961508302000E90008000830E90052
:1011800024009615080061088600870124001108D4
:1011900081002000E10AE0030319D42824009612FC
:1011A00006302000E900D72824009616FF202400EE
:1011B000161608000030EB280630DE0AEB28200067
:1011C000690884000C3004020318DC2883310435DC
:1011D000443E82000800F0002400161520006B0831
:1011E000023E8600870101080319FD286B08023EB4
:1011F00086000108860070088100E90108000430BB
:101200002000EC07EA0B07290430E9000800E90197
:10121000E90A080005302000C7004730F000183008
:10122000F101F10AF2004A30F3018E3110268931C2
:101230004830F0000230F1001830F2004E30F30177
:101240008D31A22589310230F3004A308D310925D4
:101250008931200048080F39D3004908D2005308CB
:101260002100B300200052082100B2002000481ED7
:101270003E29D209D309D20A0319D30A5308F90027
:101280005208F8008F31A72789317A08C6007908FB
:10129000C5007808C400C3014608A9004508A80095
:1012A0004408A7004308A6004030A500C830A400A9
:1012B000A301A201712189312508BE002408BD00C7
:1012C0002308BC002208BB000A233C08D3003B08CB
:1012D000D20053082100B100200052082100B000C4
:1012E00008002508AE008030AE052535B400A41BEB
:1012F0003414340803198429340F8229A201A3016C
:10130000A401A501A4178829A201A301A401A50194
:1013100029088039AE062935AF00A81B2F142F08E5
:1013200003199A292F0F9829A601A701A801A9013D
:10133000A8179E29A601A701A801A9012F08031D2E
:101340003408031DA829A201A301A401A5010800D6
:101350002208F0002808F32289317108BA007008C9
:10136000B900B000B101B201B3013A08B500B6014D
:10137000B701B8012308F0002708F322893171086A
:10138000BA007008B900B00701300318B10703189C
:10139000B2070318B3073A08B50701300318B607B8
:1013A0000318B7070318B8072408F0002608F3222B
:1013B00089317108BA007008B900B007013003180C
:1013C000B1070318B2070318B3073A08B50701308D
:1013D0000318B6070318B7070318B8073208B30095
:1013E0003108B2003008B100B0012308F00026082F
:1013F000F32289317108BA007008B900B0073A08C1
:10140000B13D0030B23DB33D2208F0002708F32281
:1014100089317108BA007008B900B0073A08B13DC7
:101420000030B23DB33D3208B3003108B20030089D
:10143000B100B0012208F0002608F32289317108BA
:10144000BA007008B900B0073A08B13D0030B23DAB
:10145000B33D2308F0002808F32289317108BA004F
:101460007008B900B5073A08B63D0030B73DB83D41
:101470002408F0002708F32289317108BA007008A7
:10148000B900B5073A08B63D0030B73DB83D24086D
:10149000F0002808F32289317108BA007008B900F9
:1014A000AA003A08AB00AC01AD012C08AD002B0836
:1014B000AC002A08AB00AA012A08B5072B08B63DE4
:1014C0002C08B73D2D08B83D3308B5070130031887
:1014D000B6070318B7070318B8073208B300310876
:1014E000B2003008B100B0013408B900BA012F08C9
:1014F000B9070318BA0A8230B907031CBA03B71B2D
:101500008D2AB535B60DB70DB80DB31B3514FF30A8
:10151000B035B10DB20DB30D7C2AAF01B31FA22AB5
:101520003008AA003108AB003208AC007F30330528
:10153000AD002C042B042A0403193518A02AA22A72
:10154000AF01AF0A2F080319B42A0130B5070030E4
:10155000B63DB73DB83D381CB42AB837B70CB60C09
:10156000B50CB90A0319BA0A3A08803AAA008030C1
:101570002A02031DBD2AFF303902031CC72A7F300F
:101580002000B8008030B700B601B501E82A20007D
:101590003A08803AAA0080302A02031DD12A01307D
:1015A00039020318DA2A2000B501B601B701B801E3
:1015B000AE01E82A20003908B400FF30B505B605B1
:1015C0007F30B7050030B8013418B7173436B8008B
:1015D0002E08B8043808A5003708A4003608A30070
:1015E0003508A2000800F700F301F4017008F500C7
:1015F000F601771CFF2A7508F3077608F43DF535E8
:10160000F60DF7367708031DF92A7408F100730800
:10161000F00008003B08BF003C08C0003D08C100C6
:101620003E08C2000310410D420DFD007D08031D60
:101630001E2BBB01BC01BD01BE0108003B08BF0061
:101640003C08C0003D08C1003E08C2001F30C23641
:10165000C10CC00CBF0C890B272B3F08FC00963037
:10166000BD17BE01FD02FD1F412B7D08803A973E4C
:10167000031C192BBE36BD0CBC0CBB0CFD0F3A2B4A
:101680004E2B20307D020318192B7D0803194E2B99
:10169000BB35BC0DBD0DBE0DFD03452B7C080319EC
:1016A0000800BB09BC09BD09BE09BB0A0319BC0A75
:1016B0000319BD0A0319BE0A08002000A200A300F6
:1016C0002330F0005330F101F10AF2002430F3012D
:1016D00010268B312430F301F30A09258B31233096
:1016E000F0005330F101F10AF2002430F301A22599
:1016F0008B312430F301F30A092520002308080068
:101700002000A200A3002330F0005330F101F10AC1
:10171000F2002530F30110268B312530F301F30A56
:1017200009258B312330F0000230F1005330F200F4
:101730002530F301A2258B312530F301F30A092569
:1017400020002408FA002308F90008003E30F000C9
:101750000230F1002330F2004530F301A2258B3135
:101760004530F301F30A09258B3120003E08C10002
:101770003F08C00041082100B300200040082100BC
:10178000B20020004108F9004008F80092258B3192
:101790007808C2007908C3007A08C4005530A20056
:1017A000A3003F30A4004208A5004308A600440857
:1017B000A700E0268B312208C2002308C3002408BA
:1017C000C4004208B1004308B2004408B3004A27ED
:1017D00032082100B100200031082100B0000800CB
:1017E0001230A201A301A30AA4002230F00023308A
:1017F000F101F10AF2002530F30110268B3125307A
:10180000F301F30A09258B312330F0002330F10175
:10181000F10AF2002930F30110268B312930F3014F
:10182000F30A09258B312430F0002330F101F10A4D
:10183000F2002D30F30110268B312D30F301F30A25
:1018400009258B310830FB004F30FA001F30F900BA
:10185000F90B282CFA0B282CFB0B282C0032080043
:1018600020004530C501F0002730F101F20046307C
:10187000F30110268B314130F0000430F1002730A5
:10188000F2004A30F301A2258B314630F301F30A0E
:1018900009258B3103302000C0000830BF007830AC
:1018A000BE00BE0B512CBF0B512CC00B512C4A302B
:1018B000F301F30A09258B3120004108D2004208C8
:1018C000D100FF30D1053F30D20552082100BB00C6
:1018D000200051082100BA0020005208F9005108E8
:1018E000F80092258B317808CE007908CF007A086D
:1018F000D000F830F8007F30F9004630FA004E088A
:10190000FB004F08FC005008FD0030258B317808A3
:10191000CE007908CF007A08D0004E08A5004F0805
:10192000A6005008A7007A30A201A3004430A4000A
:10193000E0268B312208B1002308B2002408B3004E
:101940004A278B3132082100B900200031082100DC
:10195000B80020004308BF004408BE003F0DBF0C84
:10196000BE0C3F0DBF0CBE0C3E08D1003F08D2009C
:10197000FF30D1053F30D20552082100B3002000CE
:1019800051082100B20020005208F9005108F80067
:1019900092258B317808CE007908CF007A08D000E4
:1019A000F830F8007F30F9004630FA004E08FB00AE
:1019B0004F08FC005008FD0030258B317808CE0020
:1019C0007908CF007A08D0004E08A5004F08A6007D
:1019D0005008A7004030A200CE30A3004430A4003D
:1019E000E0268B312208B1002308B2002408B3009E
:1019F0004A273208D2003108D1007030D107FE30BA
:101A0000D23D52082100B100200051082100B00051
:101A10000800F7000230F800F60178030319232DBF
:101A20007708F0007830F1007308C1258B3102305F
:101A300078060319172D78080319232D0530F60AA7
:101A40007606031D0D2D7830F7258B310630F50015
:101A50003030F400F40B2A2DF50B2A2D000008007D
:101A60007B08A2007C08A3007D08A4000310230DBE
:101A7000240DA9002908031D412DF801F901FA01DF
:101A800008007808A2007908A3007A08A4000310CF
:101A9000230D240DAA002A08031D522DF801F90177
:101AA000FA0108008930A601A701A8012A07A200AF
:101AB000A9027D08AA007A08AA068030AA05183073
:101AC000FC17FD01F917FA01A500A635A70DA80D11
:101AD0007A087D02031D722D79087C02031D722D88
:101AE00078087B02031C7B2D7808FB027908FC3BFD
:101AF0007A08FD3B2614FB35FC0DFD0DA50B652D6D
:101B00002608F0002708F1002808F2002908F30051
:101B10002A08F400C2277008F8007108F90072085A
:101B2000FA0008007808F0007908F1008E30F20120
:101B3000F300F401C2277008F8007108F900720878
:101B4000FA000800F6007308F5007208F400F43596
:101B5000F50D7608860087017408C03F7508C13FFF
:101B6000760886000130810441317608023E860005
:101B70008701710881007608033E860070088100A5
:101B80000800F20020005C18E62D71088600023083
:101B9000870181005A0A8600700881005A08860071
:101BA000720881005A08023E8600710881000330E5
:101BB000DA075A08EC3A031DDF2DE930DA00DC10B1
:101BC0005B085A06031DEB2D5C14EB2D7108860093
:101BD00087018101810A71088600023087010106B0
:101BE000031D08006908031D08009115F22DF2007D
:101BF00072088600023087010106031D062E03309D
:101C000020006902031CF82D9115F82D0630F10013
:101C10003030F000F00B0A2EF10B0A2E0000080005
:101C2000F6007308F5007208F400F435F50D760837
:101C3000860087017408C03F7508C13F7608023EE0
:101C40008600710881007608033E860070088100D6
:101C50000800FF30BC00BD010830F9002D3087318D
:101C600091278B31323080238B317A082100B300E9
:101C70007908B200343080238B317A082100B70014
:101C80007908B600363080238B317A082100BB00FA
:101C90007908BA0033082000C00021003208200073
:101CA000BF004008F9003F08F800A7278B317808EB
:101CB000A5007908A6007A08A7008530A2003B306D
:101CC000A3004030A400E0268B312208B100230895
:101CD000B2002408B3004A278B313208C000310813
:101CE000BF0040082100B10020003F082100B000E3
:101CF00037082000C000210036082000BF0040083F
:101D0000F9003F08F800A7278B317808A50079086B
:101D1000A6007A08A7008530A2003B30A30040301F
:101D2000A400E0268B312208B1002308B200240869
:101D3000B3004A278B313208C0003108BF00400889
:101D40002100B50020003F082100B4003B0820001E
:101D5000C00021003A082000BF004008F9003F08F9
:101D6000F800A7278B317808A5007908A6007A0823
:101D7000A7008530A2003B30A3004030A400E0263D
:101D80008B312208B1002308B2002408B3004A278F
:101D90008B313208C0003108BF0040082100B90073
:101DA00020003F082100B8002E305D23BE00F9005E
:101DB0002E307910873191272D30F9018731912FFD
:101DC0002208A8002308A9002408AA000310290D4E
:101DD0002A0DAB002B08031DF12EA201A301A401C3
:101DE00008002508A8002608A9002708AA00031053
:101DF000290D2A0DB0003008031D022FA201A301F6
:101E0000A401080030087B3EAB072408B000270877
:101E1000B0068030B005FF30A317A617A505A605AC
:101E20000730A701AC01AD01AE01AF00221C1E2F8F
:101E30002508AC072608AD3D2708AE3DA436A30C07
:101E4000A20CA535A60DA70DAF0B162F0930AF00BC
:101E5000221C302F2508AC072608AD3D2708AE3DD3
:101E6000A436A30CA20CAE36AD0CAC0CAF0B282FD5
:101E70002C08F0002D08F1002E08F2002B08F300CA
:101E80003008F400C2277008A2007108A30072088D
:101E9000A40008003108B5003208B6003308B700C6
:101EA0000310360D370DBD003D08031D5C2FB10139
:101EB000B201B301B40108003108B5003208B60020
:101EC0003308B7001730B736B60CB50C890B632F43
:101ED0003508B800B217B3013108B9003208BA00AA
:101EE0003308BB008E30BC01BD02BD1F832F3D08EF
:101EF000803A8F3E031C572FBC36BB0CBA0CB90C72
:101F0000BD0F7C2F902F18303D020318572F3D082E
:101F10000319902FB935BA0DBB0DBC0DBD03872F2A
:101F2000380803199E2FB909BA09BB09BC09B90AB7
:101F30000319BA0A0319BB0A0319BC0A3C08B40006
:101F40003B08B3003A08B2003908B1000800FB01B1
:101F5000F91FB12FF809F909F80A0319F90AFB0169
:101F6000FB0A7808F0007908F1008E30F201F300E6
:101F70007B08F400C2277008F8007108F9007208A5
:101F8000FA00080073080319CA2F7208710470045C
:101F9000031DD22FF001F101F2010800F30AF2361D
:101FA000F10CF00CFE3072050319E02FCE2FF30A6E
:101FB000F00A0319F10A0319F20AF236F10CF00CD7
:101FC000FF3072050319ED2FD72F02307302031C67
:101FD000EF2FF303F035F10DF20DF11FE52F731C18
:101FE000F113F3367308F700F601F5017508F004F4
:101FF0007608F1047708F2047408031DF21708004C
:020000040001F9
:04000E00E4FFFFDF2D
:00000001FF
