:040000008031102813
:100008007E1480310B1F0E28200021088A0020084A
:100018000A0080317E100900803112287030840077
:10002800233085008030FE000030FF00833102233A
:10003800803122308400003085001F30FE000030FF
:10004800FF008331022380317E1020002B280230EC
:10005800A100C730A000C32080318B170B178E1169
:100068000E110C100C1623000C1222000E150C1584
:1000780020000C1A762822000E110C15C83020001A
:10008800D900DA010C1A5F280B30FC006230FB0043
:10009800FB0B4C28FC0B4C28000001302000D90237
:1000A8000030DA3B59085A04031D46280430220060
:1000B8008E068C064228ED20803122000E150C1584
:1000C8002930FD009630FC00A630FB00FB0B6A28A7
:1000D800FC0B6A28FD0B6A28043022008E060430C7
:1000E8008C0664284030F0000330F100A8208031ED
:1000F80071082000DC007008DB005B0A3F30031940
:100108005C06031D8A2822000E110C1520005B0ACC
:100118003F3003195C06031DA528043022008E0613
:100128008C060530FD000F30FC00F430FB00FB0BA3
:100138009B28FC0B9B28FD0B9B2820000C1E5F288E
:100148008A28402B8031102800308B1B0130F200A8
:100158008B137008230091007108920015139517EE
:10016800151400000000720C031C8B1303188B1766
:1001780023001408F100F0011308F0040800D4204B
:100188008031CA20803171228031592A7030210093
:10019800990098012200960121001A1B0800D02816
:1001A800043022008C008E003B3021008C0033305C
:1001B8008E00033023008E0013308C00043024009E
:1001C8008C003C308E002100951322009E019D0179
:1001D80008004030D4000330D5009221803120003F
:1001E8007030D601D2002330D3000C2904305706D2
:1001F800031DFF28942917305706031D062994214B
:1002080080310C290D3057060319FE2892218031C0
:10021800912180312000D7004008031D6729570B22
:10022800FA28912180312000D7004008031D0A29AF
:10023800912180312000D1004008031D0A2951096D
:100248005706031D6729C001D8019121803120007C
:10025800C8005808C900CA015207CB004A08533DD4
:10026800CC004B0886004C088700480881004008ED
:10027800031941299221803146298030D80A580231
:10028800031C292920004008031D0C2991218031D5
:100298002000CD00CE01CF01D001D8015808C800F8
:1002A800C901520786004908533D87000108CF0756
:1002B8000318D00A8030D80A5802031C52294D0866
:1002C8004F06031970299221803120000A30D60A7E
:1002D8005606031908000C295508F4005408F300C1
:1002E8007030F5002330F600962180312030D40795
:1002F8000318D50A5508F4005408F300B030F50087
:100308002330F600962180312030D4070318D50A0F
:10031800942180312000D6010C29742A15300D2A29
:1003280006300D2AFF30C2000F30C3001F30C2064E
:100338007308C2057408C30500308B1B0130C10067
:10034800C601C501C50A43087406031DAD29420844
:100358007306031D08008B137408F1007308F0007E
:100368003C2280312000C401450844020318042AB5
:10037800230095171513151595162000C701730846
:10038800230091007408920020004608F700F80145
:10039800F735F80D7708750786007808763D8700E9
:1003A80001082300930020004608F700F801F735FC
:1003B800F80D7708750786007808763D8700403F76
:1003C800F900413FFA002300940020001F30C60ABC
:1003D8004706031DF1292300951255302300960086
:1003E800AA309600951400000000F30A0319F40AD5
:1003F80020002030C70A4702031CC329C40AB829B1
:10040800230015112000410C031C8B1303188B17B4
:100418000800F10022008E1571081922803123008E
:100428009E1C132A22008E110800F00020003D08AF
:1004380003191A2A2100111A252A700823009A0084
:10044800332A111220003E082A3E860087017008D0
:100458008100BE0A08303E020318BE01BD033230D7
:100468002000B600B70122000C1121001116080067
:1004780000308B1B0130F2008B13700823009100B1
:100488007108920015139517151615155530960015
:10049800AA30960095140000000023001511720C74
:1004A800031C8B1303188B170800911211120830C4
:1004B80023009F0090309D0024309E00A0309B00B8
:1004C80001309C002000BE01BF010830BD00BB0107
:1004D800BC01BA01210091160800163097000800E7
:1004E80020000B30B501B4007130B300B030B20059
:1004F800C0013A08031DAE2A3608370403198E2AAC
:100508000130B6020030B73B36083704031D8E2A87
:1005180022000E15200038083904013003199E2ADC
:10052800B8020030B93B38083904031D9D2A22005F
:100538000C1501302000B2020030B33BB43BB53B90
:100548003508340433043204031D7D2A0030C00109
:10055800C00A08003230B600B70122000E11200090
:100568003C08223E860087010108F000BC0A0830DA
:100578003C020318BC01210091122000BA0321009B
:100588009116700808000B1F08002100111ED02AC0
:100598002000111ED02AEC2A2100911E08002000FC
:1005A800911E0800D72A23009D1CDC2A1D121D1647
:1005B80020003B08223E860087012300190881009D
:1005C8002000BB0A08303B020318BB01BA0A080026
:1005D80008303D020318FF2A3F082A3E860087019B
:1005E800010823009A002000BF0A08303F020318C0
:1005F800BF01BD0A08002100111208006400013083
:1006080080010131FE020030FF3B7F087E040319A0
:040618000034032B7C
:020000040001F9
:04000E00E4FFFFFF0D
:00000001FF
