:100680008331422B8D31CA2D8431F72C8531172DC2
:100690008531472D8531622D8531B22D85317E2DF5
:1006A0008531962D8531B22D85319B2D8531B42D27
:0806B00085311A2D8531342D2E
:100782000800640080010131890BC32B0034200072
:100792000C0E890C01392100B400B50108001508BE
:1007A200C03917389500B03020009500EC000B11CD
:1007B2008B16C130F0000330F100DF2B7108DD0031
:1007C2007008DC000800083065020318F72B670880
:1007D200A83E86008701010823009A002000E70A4C
:1007E200083067020318E701E50A08002100111228
:1007F2000800210091121112083023009F00B0302E
:100802009D0024309E00A0309B0001309C002000FF
:10081200E601E7010830E500E301E401E20121001D
:10082200911608000B116C0895002100B00A0319FB
:10083200B10A003031020A3003193002031C0800E9
:1008420026242100B001B101080020005C085D04EB
:10085200031908005D088A005C080A008431080058
:100862003D08C3003E08C4003F08C5000310440D04
:10087200450DC8004008C3004108C4004208C50035
:100882000310440D450DC70048080319542C4708AE
:100892004802470803185C2CC3004808C3021930F9
:1008A2004302031C5B2C4008BD004108BE00420805
:1008B200BF00080047080319080048084702031848
:1008C2006A2C4808C3004708C302193043020318C0
:1008D20008000630C600BF1BC617C21B4617BE174C
:1008E200BF01C117C2014708480203188F2CC03547
:1008F200C10DC20DC7034708480603198A2CC60357
:100902004608073903198A2C782CBF36BE0CBD0C59
:10091200C80A480847060319A92C862C480847022A
:100922000318A92CBD35BE0DBF0DC80347084806E4
:100932000319A52CC603460807390319A52C932CC5
:10094200C236C10CC00CC70A48084706031DA12CB9
:10095200C61FB42CFF30BD06BE06BF06BD0A031972
:10096200BE0A0319BF0A461FBF2CFF30C006C106CC
:10097200C206C00A0319C10A0319C20AC6013D0808
:10098200C0073E08C13D3F08C23DC21FD32CFF3005
:10099200C006C106C206C00A0319C10A0319C20A67
:1009A200C601C60A4008F0004108F1004208F20000
:1009B2004808F3004608F4008D3122257008BD0076
:1009C2007108BE007208BF00080091112400951F33
:1009D200B72D95132000E8016A08023E86008701C0
:1009E200010886008101810AEA010800D91808007D
:1009F2005808EA005808860087010108E9005808EB
:100A02008600413FEB000330D8075808ED3A031D3A
:100A12000C2DEA30D8005910580857060319D9147A
:100A22002400161402302000E80008002400961466
:100A3200132D2400161F212D20000430DB0AC32DA4
:100A420020006E08F2006D08F100F236F10C710818
:100A52002400910020006D1C312D0B30E8000800AD
:100A62000330E80008002400161F3B2D200004304C
:100A7200DB0AC32D9614063020006E05F100F03813
:100A8200ED00EE016D14DE01DE0A132D5E03031983
:100A9200592D6B0886008701403FED00413FEE0073
:100AA2006B088600433FE0006B088600423FDF0090
:100AB2006D082400910020006D1C312D0530E800E6
:100AC20008002400161F6B2D2000DB0A24001613D9
:100AD2000530C32D2000DF035F0F752D0430EB07B7
:100AE200E90B172D0030C32D60088600870101082D
:100AF200240091002000E00A08000330F200973041
:100B0200F100F10B822DF20B822D00322400161F10
:100B1200912D20000430DB0AC3252400161308009F
:100B2200961508302000E80008000830E80024008C
:100B320096150800600886008701240011088100CC
:100B42002000E00ADF030319AC2D240096120630C0
:100B52002000E800AF2D24009616D7252400161693
:100B620008000030C32D0630DB0AC32D20006808C0
:100B720084000C3004020318B42D83310435443E42
:100B820082000800F0002400161520006A08023EC8
:100B92008600870101080319D52D6A08023E8600E6
:100BA2000108860070088100E80108000430200076
:100BB200EB07E90BDF2D0430E8000800E801E80A42
:100BC2000800CF268531FF302100C800C700200071
:100BD2000E1108302100CC00CB012000611DE1186C
:100BE200F62D611AF62DE11D002E6119FB2D043040
:100BF200D200FD2DD201D20AD3015208542E003068
:100C020021004402C83003194302031C122E003093
:100C12004402CE30031943020318122E4335443ED8
:100C2200652E33088A0032080A000130863121001D
:100C320044022C30031943020130031C292E4402C2
:100C42003430031943020318282E2C30402E013071
:100C52004402903003194302031C382E013044022F
:100C62009430031943020318382E9030402EF4308A
:100C72004306031D432E4403031D432EF430C302D7
:100C820001304D2E20304306033003194406031D64
:100C92004F2E2030C3020330C43B512E0230542E5B
:100CA2004335B43E652EF300210054088D2685316C
:100CB200420880388D26853173088D268531470894
:100CC200922685314808922EF70054088D268531E8
:100CD20042088D26853145358D268531F801780803
:100CE200F500F60146087602031D792E45087502C5
:100CF2000318882E78357707F50086008701403F74
:100D0200F300413FF400D5268531F80A702E4708DA
:100D1200922685314808922EF20092268531720879
:100D2200DA2EF00020006508031DB72E21004908C5
:100D32004A040319A62E0130C9020030CA3B4908F1
:100D42004A04031DA62E20000C1521004B084C045A
:100D52000319932E0130CB020030CC3B4B084C04DC
:100D6200031D932E20000E152100932E2100111A2F
:100D7200BE2E700823009A00CC2E111220006608A5
:100D8200A83E8600870170088100E60A08306602E4
:100D92000318E601E5032100111608002000E60110
:100DA200E7010830E500080074088D2685317308D4
:100DB2008D2EF000C7060830F100471CE72EC8361A
:100DC200C70C0130C706A030C806E92EC836C70CCA
:100DD200F103710803190800DE2E0330A201A301FA
:100DE200A30AA400F7002330F8002530F901FA0025
:100DF2002230FE2625308F310A2FFB005918122F80
:100E02007B08F0007708F1007908F3007808F20017
:100E1200E630E7278631E630F0007A08F10001304B
:100E2200B22F7A08860087018101810A08003330D7
:100E320055278631AE00323055278631AF002E0855
:100E42002100B500B40120002F082100B404353080
:100E520055278631AE00343055278631AF002E0833
:100E62002100B500B40120002F082100B40437305E
:100E720055278631AE00363055278631AF002E0811
:100E82002100B500B40120002F082100B4042E3047
:100E920055278631AD002D102D08FC002E308527F8
:100EA20086312D30FC01852F2000A2002230F00077
:100EB2005330F101F10AF2002430F301E7278631C1
:100EC2002330F0005330F101F10AF2002830F3012F
:100ED200932786312430F0002C30F1000230B22703
:100EE2002C308F310A272000230808000A30FC002A
:100EF2003130852786310830FC002D308527863138
:100F02008030FC003830852F2000A200A3007C082E
:100F1200A4000230F7005330F8002530F901FA003E
:100F22002330FE2EF6007308F5007208F400F43543
:100F3200F50D7608860087017408C03F7508C13F29
:100F4200760886000130810441317608023E86002F
:100F52008701710881007608033E860070088100CF
:100F62000800F2005918D62F710886000230870156
:100F72008100570A860070088100570886007208AF
:100F820081005708023E8600710881000330D707AE
:100F92005708ED3A031DCF2FEA30D700D910580871
:100FA2005706031DDB2F5914DB2F710886008701BA
:100FB2008101810A71088600023087010106031D42
:100FC20008006808031D08009115E22FF600730857
:100FD200F5007208F400F435F50D760886008701F5
:100FE2007408C03F7508C13F7608023E860071084A
:0E0FF20081007608033E86007008810008002A
:101684000230F7002330F8002430F901FA00223048
:10169400EE268B3124300A278B31200022082100CA
:1016A400B400200023082100B500B601B7012000D2
:1016B4002308F9002208F800122578082100B80050
:1016C4007908B9007A08BA0008000230F70023301C
:1016D400F8002430F901FA002230EE268B31243050
:1016E4000A278B31200022082100BB002000230898
:1016F4002100BC00BD01BE0120002308F90022081E
:10170400F800122578082100BF007908C0007A0883
:10171400C10008000430F7001830F8005130F90116
:10172400FA004D30EE268B3151300A278B31FC30D4
:101734002000A2007F30A3004630A4004E08F10030
:101744004D08F0006430F200F301C8278B317108B2
:10175400F9007008F80012258B317808A500790883
:10176400A6007A08A70053248B3122082100B80070
:10177400200023082100B900200024082100BA0019
:101784000430B43E86008701403FF000413FF10041
:10179400423FF200B5248B3170082000C900710863
:1017A400CA007208CB007308CC000D30C935CA0DCD
:1017B400CB0DCC0D890BD82B4C082100B700200091
:1017C4004B082100B60020004A082100B500200083
:1017D40049082100B40020002030BD01BE00C23001
:1017E400BF002530AE01AF004330B000FC30A20092
:1017F4007F30A3004630A4005008F9004F08F800D9
:1018040012258B317808A5007908A6007A08A7006C
:1018140053248B312208B1002308B2002408B300FA
:1018240060252E08C0002F08C1003008C200843192
:1018340031248B313D082100BF0020003E082100E7
:10184400C00020003F082100C1000B30B43E8600D8
:101854008701403FF000413FF100423FF200B524D0
:101864008B3170082000C9007108CA007208CB00CF
:101874007308CC000D30C935CA0DCB0DCC0D890BC6
:101884003D2C4C082100BE0020004B082100BD0067
:1018940020004A082100BC00200049082100BB00A8
:1018A40008002508FB002608FC002708FD0003109B
:1018B4007C0D7D0DAC002C08031D642CA201A3013A
:1018C400A40108002208FB002308FC002408FD00F2
:1018D40003107C0D7D0DAD002D08031D752CA20198
:1018E400A301A40108008930A901AA01AB012D07B5
:1018F400FB00AC022708AD002408AD068030AD051E
:101904001830A617A701A317A401A800A935AA0D8A
:10191400AB0D24082702031D952C23082602031D62
:10192400952C22082502031C9E2C2208A5022308BC
:10193400A63B2408A73B2914A535A60DA70DA80B83
:10194400882C2908F0002A08F1002B08F2002C0842
:10195400F3002D08F40022257008A2007108A300EA
:101964007208A40008007008F4007108F5007208F9
:10197400F6000310750D760DFC007C08031DC72CC2
:10198400F001F101F201F30108007008F40071089C
:10199400F5007208F6001730F636F50CF40C890BD6
:1019A400CE2C7408F700F117F2017008F8007108E2
:1019B400F9007208FA008E30FB01FC02FC1FEE2CC9
:1019C4007C08803A8F3E031CC22CFB36FA0CF90CBF
:1019D400F80CFC0FE72CFB2C18307C020318C22CEB
:1019E4007C080319FB2CF835F90DFA0DFB0DFC03EB
:1019F400F22C77080319092DF809F909FA09FB09EA
:101A0400F80A0319F90A0319FA0A0319FB0A7B08ED
:101A1400F3007A08F2007908F1007808F000080071
:101A24007808F0007908F1008E30F201F300F40137
:101A340022257008F8007108F9007208FA000800FD
:101A4400730803192A2D720871047004031D322DC2
:101A5400F001F101F2010800F30AF236F10CF00C86
:101A6400FE3072050319402D2E2DF30AF00A0319D6
:101A7400F10A0319F20AF236F10CF00CFF30720588
:101A840003194D2D372D02307302031C4F2DF30320
:101A9400F035F10DF20DF11F452D731CF113F336E2
:101AA4007308F700F601F5017508F0047608F104EF
:101AB4007708F2047408031DF21708002E08B40016
:101AC4002F08B5003008B6000310350D360DB700E9
:101AD4003708031D712DAE01AF01B00108003108B4
:101AE400B4003208B5003308B6000310350D360DC6
:101AF400BC003C08031D822DAE01AF01B0010800FB
:101B04003C087B3EB7073008BC003308BC06803075
:101B1400BC05FF30AF17B217B105B2050730B301EA
:101B2400B801B901BA01BB002E1C9E2D3108B807BB
:101B34003208B93D3308BA3DB036AF0CAE0CB135FE
:101B4400B20DB30DBB0B962D0930BB002E1CB02D6E
:101B54003108B8073208B93D3308BA3DB036AF0C86
:101B6400AE0CBA36B90CB80CBB0BA82D3808F00073
:101B74003908F1003A08F2003708F3003C08F40091
:101B840022257008AE007108AF007208B00008008A
:101B9400573084000030850018308331C2238B31E4
:101BA400A0308400003085004D308331C2238B3156
:101BB4002000DC2D25268B310E302000A10025309D
:101BC400A00050268B312000D6015608D43E860052
:101BD4008701560822278B31810020000E30D60A57
:101BE4005602031CE72D55302100E000AA30E10025
:101BF4008B170B170C1120000C150E152100C901B1
:101C0400CA01CB01CC018E118C268B31D8009C30BB
:101C1400D9012000D500D730D400D40B0F2ED50B1A
:101C24000F2E36278B3120006118E119232E220054
:101C34008E158531E2258B3123009E1C1E2E220039
:101C44008E116400132E8B1A0B1D2A2E8431132C33
:101C54000B1F342E2100111E342E2000111E342E91
:101C64008331E42B0B1F3D2E2100911E3D2E2000BD
:101C7400911E3D2EDD2F0B1F472E2100911D472E57
:101C84002000911D472E8431E62C0B1F08002100F3
:101C9400921D08002000921D0800F22F76268B3139
:101CA4006F268B3189268B315B268331D023833198
:101CB400FA2BEA302000D800D7004030D91459104C
:101CC400DB0124009400283095009701E030920055
:101CD4002000911121009115080070302100990015
:101CE40098011A1B0800732E22008C018E013F30CC
:101CF40021008C008E0023008E018C0124008C00B6
:101D04008E002100951322009E019D0108001030D1
:101D1400970008004F30DA268B31003A03199C2EC5
:101D240067302100B2000B30B3004030D4000230E1
:101D3400D50108003130DA268B31003A0319AC2E74
:101D44008C302100B2000B30B3004130D40001309C
:101D5400D50108004730DA268B31003A0319BE2E2C
:101D64008631EE2642302100B2000B30B3004230FF
:101D7400D4000330D5010800A730DA268B31003AAD
:101D84000319D12E18302100B2000730B300873177
:101D9400772743302100D4000530D50108004430B2
:101DA4002100D400C830D501B2000330B30006349A
:101DB4002000A200F701F70A2236F8002430F901C6
:101DC400FA002330EE268B3124300A278B31200091
:101DD4002408031901340034FB0020005918042F8F
:101DE4007B08F0007708F1007908F3007808F20026
:101DF400E23087319327E230F0007A08F1000130B5
:101E04008731B22F7A08860087018101810A080090
:101E1400F20072088600023087010106031D182FA4
:101E240003306802031C0B2F91150B2F0630F100B1
:101E34003030F000F00B1C2FF10B1C2F00000800B9
:101E4400F000252F2000640023009518242F70082B
:101E5400910092013F3095051514031015180314D1
:101E64000030093D130808002000E101C4278B312C
:101E7400FF302100C800C7007B278B31FB007B08A3
:101E8400031D472F20000C1E532F7B08F900FA0175
:101E9400210055087A06031D512F54087906031DA5
:101EA400080008302100CA000030C90120000C11CC
:101EB40061147B278B31C2006F2F81278B3174080B
:101EC400C4007308C30081278B317408C6007308EB
:101ED400C500F32F2000611508004208033A0319D6
:101EE4005F2F073A03195F2F023A03197A2F6C2FD9
:101EF40008008E27F2008631DA26720808007B2754
:101F04008B31F500F601F600F5017B27F800750426
:101F1400F3007608F400080020006208031DB12FC6
:101F2400210049084A040319A12F0130C9020030D5
:101F3400CA3B49084A04031DA12F20000C152100A7
:101F44004B084C0403198E2F0130CB020030CC3BDC
:101F54004B084C04031D8E2F20000E158E2F640891
:101F6400A03E860087010108F000E40A08306402FC
:101F74000318E401210091122000E20321009116CC
:101F840070080800E301E401E2010800F401F5012E
:101F9400701CD02F7208F4077308F53DF235F30D69
:101FA400F136F00C70087104031DCA2F7508F10096
:101FB4007408F000080023009D1CE22F1D121D165A
:101FC40020006308A03E86008701230019088100D1
:101FD4002000E30A083063020318E301E20A080060
:101FE40008008E278B31F300F401F400F3018E27EF
:0C1FF400F6007304F1007408F20008000D
:020000040001F9
:04000E00E4FFFFDF2D
:00000001FF
