:040000008031102813
:100008007E1480310B1F0E28200021088A0020084A
:100018000A0080317E100900803112287030840077
:10002800203085008030FE000030FF008231FF2242
:10003800803122308400003085001F30FE000030FF
:10004800FF008231FF2280317E1020002B280230F1
:10005800A100C430A000872080318B170B178E11A8
:100068000E110C100C1623000C1222000E150C1584
:1000780020000C1E62284030F0000330F1006C2094
:10008800803171082000D8007008D700570A3F3027
:1000980003195806031D6928043022008C06053010
:1000A800FD000F30FC00F430FB00FB0B5928FC0B63
:1000B8005928FD0B592820000C1A4A28B1208031F4
:1000C80022000E150C1501003F28402B8031102806
:1000D80000308B1B0130F2008B1370082300910055
:1000E8007108920015139517151400000000720C82
:1000F800031C8B1303188B1723001408F100F0015D
:100108001308F0040800982080318E2080316E2278
:100118008031562A703021009900980122009601FA
:1001280021001A1B08009428043022008C008E003D
:100138003B3021008C0033308E00033023008E00CA
:1001480013308C00043024008C003C308E002100D9
:10015800951322009E019D0108004030D200033013
:10016800D30015306521803106228031003A031909
:10017800B52820007030CF01D401D0002030D10044
:10018800D62804305606031DCB280630D42817304D
:100198005606031DD3280630652180315F291530A6
:1001A80065218031712180312000D6004008031D6F
:1001B800D328560BC528712180312000D60040086D
:1001C800031DD328712180312000CD004008031D74
:1001D800D3284D095606031DF52856084F0603195E
:1001E800FE2815306521803120000A30D40A5406D3
:1001F80003195F29D601D501712180312000C8007B
:100208005508C900CA015007CB004A08513DCC0027
:100218004B0886004C0887004808810040080319ED
:10022800192915306521803128295508C800C901C8
:10023800500786004908513D87000108D6078030DD
:10024800D50A5502031C002920004008031DD628A2
:10025800712180312000CE00560603193C29153043
:100268006521803120000A30D40A540603195F2919
:100278005308F4005208F3007030F5002030F600FF
:10028800722180312030D2070318D30A5308F400B2
:100298005208F300B030F5002030F60072218031AA
:1002A8002030D2070318D30A063065218031200098
:1002B800CF0AD401D6280A3020005406031D0800AE
:1002C800B128F10022008E157108332280312300F5
:1002D8009E1C6B2922008E110800712AFF30C20073
:1002E8000F30C3001F30C2067308C2057408C30567
:1002F80000308B1B0130C100C601C501C50A430887
:100308007406031D892942087306031D08008B1310
:100318007408F1007308F000E92180312000C4015D
:10032800450844020318E0292300951715131515ED
:1003380095162000C70173082300910074089200E5
:1003480020004608F700F801F735F80D770875071B
:1003580086007808763D8700010823009300200076
:100368004608F700F801F735F80D77087507860095
:100378007808763D8700403FF900413FFA002300A6
:10038800940020001F30C60A4706031DCD2923000C
:100398009512553023009600AA3096009514000057
:1003A8000000F30A0319F40A20002030C70A4702A4
:1003B800031C9F29C40A9429230015112000410C0D
:1003C800031C8B1303188B17080000308B1B01309C
:1003D800F2008B1370082300910071089200151326
:1003E80095171516151555309600AA3096009514D0
:1003F8000000000023001511720C031C8B13031856
:100408008B1708006430F200E830F301F400033081
:10041800F50020003A080319132A3A0808000B309F
:10042800F1006230F000F00B172AF10B172A0000D8
:100438000130F2020030F33B72087304031D2A2ACC
:10044800043022008C066430F200F3010130F4021B
:100458000030F53B74087504031900340D2AF000C8
:1004680020003D080319342A2100111A3F2A700878
:1004780023009A004D2A111220003E082A3E8600C9
:10048800870170088100BE0A08303E020318BE01C9
:10049800BD0332302000B600B70122000C11210044
:1004A8001116080091121112083023009F00903095
:1004B8009D0024309E00A0309B0001309C0020004D
:1004C800BE01BF010830BD00BB01BC01BA0121005B
:1004D8009116080016309700080020000B30B5016F
:1004E800B4007130B300B030B200C0013A08031D47
:1004F800AB2A3608370403198B2A0130B6020030BC
:10050800B73B36083704031D8B2A22000E1520003E
:1005180038083904013003199B2AB8020030B93B66
:1005280038083904031D9A2A22000C1501302000CE
:10053800B2020030B33BB43BB53B35083404330456
:100548003204031D7A2A0030C001C00A0800323084
:10055800B600B70122000E1120003C08223E86009A
:1005680087010108F000BC0A08303C020318BC01EE
:10057800210091122000BA0321009116700808008A
:100588000B1F08002100111ECD2A2000111ECD2AA4
:10059800E92A2100911E08002000911E0800D42A93
:1005A80023009D1CD92A1D121D1620003B08223E3F
:1005B800860087012300190881002000BB0A083043
:1005C8003B020318BB01BA0A080008303D020318B1
:1005D800FC2A3F082A3E86008701010823009A006A
:1005E8002000BF0A08303F020318BF01BD0A0800F7
:1005F8002100111208006400013080010131FE025F
:0E0608000030FF3B7F087E0403190034002BF6
:020000040001F9
:04000E00E4FFFFFF0D
:00000001FF
