:020000040000FA
:02000000B12924
:040002000034003492
:02000800582A74
:06000A00F00000000828D0
:100010000928F00B0628080076080B001428192878
:100020001D2822000E11080022000C1222008E1240
:10003000080022008E110E12080022000C11080088
:1000400076080B0028282D28312822000E150800DC
:1000500022000C1622008E16080022008E150E16A5
:10006000080022000C15080076080B003C284128E7
:10007000452821000E11080021000C1221008E12CB
:10008000080021008E110E12080021000C1108003A
:1000900076080B0050285528592821000E15080015
:1000A00021000C1621008E16080021008E150E1658
:1000B000080021000C15080034200C200230052017
:1000C000482008300520760803100B006D287128A1
:1000D000752820000E190314080020008E1A03143E
:1000E000080020000E1A0314080020000C19031445
:1000F00008000C20031882283C3005202020033003
:10010000052008000230052020203D300520080091
:1001100034200830F200F50C7920F20B8B284820AF
:1001200008000830F200F5015C20F50C32300520A3
:10013000F20B9428750808002030780784000030FE
:1001400085000301853D0008F500780A0F39F800A5
:1001500008006320031CAE28F10BA92808006320C7
:100160000318B428F10BAF280800F501F801F901D4
:100170002030200084000030200085000301803FF3
:10018000813F823F833F843F853F863F873F74089E
:10019000F60034200C202430F100FA300520F10B59
:1001A000CD284820823005203230F100A920F10806
:1001B0000319FB280830F2002330F100AF20F108CA
:1001C0000319F1283230F100A920F1080319F128B0
:1001D00023307102F50DF20BDC28FF3075061A0092
:1001E000DA28083072020319FB28F50DF20BF52806
:1001F000FF3075061A00043020000402F900F801EF
:100200000800CC307502031900345530750203190B
:1002100002343330750203190134F03075020319CA
:100220000334F130750203190434063401210B0044
:1002300008001F290800AB29A92908000800203060
:10024000200084000030200085000830F1002000EC
:100250008C16912075081A00F10B292920008C12A8
:10026000F8010830F9000800203020008400003038
:10027000200085000301803F813F823F833F843F10
:10028000853F863F873F4130FA00F8010830F9008A
:100290000800FA08031993290830F20020302000E2
:1002A0008400003020008500003FFB00FC01FD01C0
:1002B0000130F1005C20F50D3C3005205C20F50D8F
:1002C0003C300520033075050B0069297429762917
:1002D000A32971087A0203197629031C71297B1856
:1002E00076297108FD007729FC137729FC17342043
:1002F0007C0D792048200A300520F20B8B297C08E0
:10030000803FFC01403071020318A3291000FB005C
:100310000830F2009129403071020318A329FC0C27
:10032000FB0CF10A5A292030200084000030200004
:100330008500FF30803F813F823F833F843F853F80
:10034000863F873FA5297D08FA00F8010830F900AB
:1003500008003421080020008C16492120008C124E
:100360000800F030210099002B223C3024008E0040
:10037000143024008C0021009513210091152000D9
:100380000B178B1721008C1220008C16F401F3013F
:10039000F601F501F701F801F90120008C12F71DB3
:1003A000F129F711771ACF2977167408F600200083
:1003B0008C1634200C20FA300520E6300520482029
:1003C0005030052063200318EA29783005202400E6
:1003D0009612EC29240096162400151620008C1283
:1003E0002A2AF71CFC29F7107408F60020008C1646
:1003F000B52020008C122A2A771C182A7408F600CF
:10040000F9080319092A790878020319092A9C2096
:10041000102A20008C1634200C20912020008C12F1
:10042000750824009100240015167710F7162A2A63
:10043000771D2A2A20008C167408F6007308F50030
:100440008820771120008C12771FCF297308F500C0
:1004500016217713CF2900302400910024000030AA
:10046000940006302400920024001E3093002400E3
:100470002E3095002400161096169617240097101B
:1004800017101713971217162000911120008E01D4
:1004900022008E0123008C0123008E0121003F30B9
:1004A0008E002200E8309D0022000F309E000800E0
:1004B00020009111F71E652A2400161B612A77146B
:1004C0000900F712F801F901932A2400941D6A2A01
:1004D00077176F2A2400141E6F2AF701932A24002D
:1004E000141C932A24001108F3002400941A8C2A67
:1004F000F400F40DF40D740D0339F400F31E842A96
:10050000F7147714771309002400141D8A2A77142E
:1005100077130900F715932A2400141D922A7714E3
:0C05200077130900771524001516090058
:020000040001F9
:0800000031005700010002006D
:02000E00E43FCD
:02001000FF3FB0
:00000001FF
